{
  "_format": "hh-sol-artifact-1",
  "contractName": "MyToken",
  "sourceName": "contracts/MyToken.sol",
  "abi": [
    {
      "inputs": [
        {
          "internalType": "uint256",
          "name": "initialSupply",
          "type": "uint256"
        }
      ],
      "stateMutability": "nonpayable",
      "type": "constructor"
    },
    {
      "anonymous": false,
      "inputs": [
        {
          "indexed": true,
          "internalType": "address",
          "name": "owner",
          "type": "address"
        },
        {
          "indexed": true,
          "internalType": "address",
          "name": "spender",
          "type": "address"
        },
        {
          "indexed": false,
          "internalType": "uint256",
          "name": "value",
          "type": "uint256"
        }
      ],
      "name": "Approval",
      "type": "event"
    },
    {
      "anonymous": false,
      "inputs": [
        {
          "indexed": true,
          "internalType": "address",
          "name": "previousOwner",
          "type": "address"
        },
        {
          "indexed": true,
          "internalType": "address",
          "name": "newOwner",
          "type": "address"
        }
      ],
      "name": "OwnershipTransferred",
      "type": "event"
    },
    {
      "anonymous": false,
      "inputs": [
        {
          "indexed": true,
          "internalType": "address",
          "name": "from",
          "type": "address"
        },
        {
          "indexed": true,
          "internalType": "address",
          "name": "to",
          "type": "address"
        },
        {
          "indexed": false,
          "internalType": "uint256",
          "name": "value",
          "type": "uint256"
        }
      ],
      "name": "Transfer",
      "type": "event"
    },
    {
      "inputs": [
        {
          "internalType": "address",
          "name": "_stakeholder",
          "type": "address"
        }
      ],
      "name": "addStakeholder",
      "outputs": [],
      "stateMutability": "nonpayable",
      "type": "function"
    },
    {
      "inputs": [
        {
          "internalType": "address",
          "name": "owner",
          "type": "address"
        },
        {
          "internalType": "address",
          "name": "spender",
          "type": "address"
        }
      ],
      "name": "allowance",
      "outputs": [
        {
          "internalType": "uint256",
          "name": "",
          "type": "uint256"
        }
      ],
      "stateMutability": "view",
      "type": "function"
    },
    {
      "inputs": [
        {
          "internalType": "address",
          "name": "spender",
          "type": "address"
        },
        {
          "internalType": "uint256",
          "name": "amount",
          "type": "uint256"
        }
      ],
      "name": "approve",
      "outputs": [
        {
          "internalType": "bool",
          "name": "",
          "type": "bool"
        }
      ],
      "stateMutability": "nonpayable",
      "type": "function"
    },
    {
      "inputs": [
        {
          "internalType": "address",
          "name": "account",
          "type": "address"
        }
      ],
      "name": "balanceOf",
      "outputs": [
        {
          "internalType": "uint256",
          "name": "",
          "type": "uint256"
        }
      ],
      "stateMutability": "view",
      "type": "function"
    },
    {
      "inputs": [
        {
          "internalType": "address",
          "name": "_stakeholder",
          "type": "address"
        }
      ],
      "name": "calculateReward",
      "outputs": [
        {
          "internalType": "uint256",
          "name": "",
          "type": "uint256"
        }
      ],
      "stateMutability": "view",
      "type": "function"
    },
    {
      "inputs": [
        {
          "internalType": "uint256",
          "name": "_stake",
          "type": "uint256"
        }
      ],
      "name": "createStake",
      "outputs": [],
      "stateMutability": "nonpayable",
      "type": "function"
    },
    {
      "inputs": [],
      "name": "decimals",
      "outputs": [
        {
          "internalType": "uint8",
          "name": "",
          "type": "uint8"
        }
      ],
      "stateMutability": "view",
      "type": "function"
    },
    {
      "inputs": [
        {
          "internalType": "address",
          "name": "spender",
          "type": "address"
        },
        {
          "internalType": "uint256",
          "name": "subtractedValue",
          "type": "uint256"
        }
      ],
      "name": "decreaseAllowance",
      "outputs": [
        {
          "internalType": "bool",
          "name": "",
          "type": "bool"
        }
      ],
      "stateMutability": "nonpayable",
      "type": "function"
    },
    {
      "inputs": [],
      "name": "distributeRewards",
      "outputs": [],
      "stateMutability": "nonpayable",
      "type": "function"
    },
    {
      "inputs": [
        {
          "internalType": "address",
          "name": "spender",
          "type": "address"
        },
        {
          "internalType": "uint256",
          "name": "addedValue",
          "type": "uint256"
        }
      ],
      "name": "increaseAllowance",
      "outputs": [
        {
          "internalType": "bool",
          "name": "",
          "type": "bool"
        }
      ],
      "stateMutability": "nonpayable",
      "type": "function"
    },
    {
      "inputs": [
        {
          "internalType": "address",
          "name": "_address",
          "type": "address"
        }
      ],
      "name": "isStakeholder",
      "outputs": [
        {
          "internalType": "bool",
          "name": "",
          "type": "bool"
        },
        {
          "internalType": "uint256",
          "name": "",
          "type": "uint256"
        }
      ],
      "stateMutability": "view",
      "type": "function"
    },
    {
      "inputs": [
        {
          "internalType": "uint256",
          "name": "amount",
          "type": "uint256"
        }
      ],
      "name": "mint",
      "outputs": [],
      "stateMutability": "nonpayable",
      "type": "function"
    },
    {
      "inputs": [],
      "name": "name",
      "outputs": [
        {
          "internalType": "string",
          "name": "",
          "type": "string"
        }
      ],
      "stateMutability": "view",
      "type": "function"
    },
    {
      "inputs": [],
      "name": "owner",
      "outputs": [
        {
          "internalType": "address",
          "name": "",
          "type": "address"
        }
      ],
      "stateMutability": "view",
      "type": "function"
    },
    {
      "inputs": [
        {
          "internalType": "uint256",
          "name": "_stake",
          "type": "uint256"
        }
      ],
      "name": "removeStake",
      "outputs": [],
      "stateMutability": "nonpayable",
      "type": "function"
    },
    {
      "inputs": [
        {
          "internalType": "address",
          "name": "_stakeholder",
          "type": "address"
        }
      ],
      "name": "removeStakeholder",
      "outputs": [],
      "stateMutability": "nonpayable",
      "type": "function"
    },
    {
      "inputs": [],
      "name": "renounceOwnership",
      "outputs": [],
      "stateMutability": "nonpayable",
      "type": "function"
    },
    {
      "inputs": [
        {
          "internalType": "address",
          "name": "_stakeholder",
          "type": "address"
        }
      ],
      "name": "rewardOf",
      "outputs": [
        {
          "internalType": "uint256",
          "name": "",
          "type": "uint256"
        }
      ],
      "stateMutability": "view",
      "type": "function"
    },
    {
      "inputs": [
        {
          "internalType": "address",
          "name": "_stakeholder",
          "type": "address"
        }
      ],
      "name": "stakeOf",
      "outputs": [
        {
          "internalType": "uint256",
          "name": "",
          "type": "uint256"
        }
      ],
      "stateMutability": "view",
      "type": "function"
    },
    {
      "inputs": [],
      "name": "symbol",
      "outputs": [
        {
          "internalType": "string",
          "name": "",
          "type": "string"
        }
      ],
      "stateMutability": "view",
      "type": "function"
    },
    {
      "inputs": [],
      "name": "totalRewards",
      "outputs": [
        {
          "internalType": "uint256",
          "name": "",
          "type": "uint256"
        }
      ],
      "stateMutability": "view",
      "type": "function"
    },
    {
      "inputs": [],
      "name": "totalStakes",
      "outputs": [
        {
          "internalType": "uint256",
          "name": "",
          "type": "uint256"
        }
      ],
      "stateMutability": "view",
      "type": "function"
    },
    {
      "inputs": [],
      "name": "totalSupply",
      "outputs": [
        {
          "internalType": "uint256",
          "name": "",
          "type": "uint256"
        }
      ],
      "stateMutability": "view",
      "type": "function"
    },
    {
      "inputs": [
        {
          "internalType": "address",
          "name": "to",
          "type": "address"
        },
        {
          "internalType": "uint256",
          "name": "amount",
          "type": "uint256"
        }
      ],
      "name": "transfer",
      "outputs": [
        {
          "internalType": "bool",
          "name": "",
          "type": "bool"
        }
      ],
      "stateMutability": "nonpayable",
      "type": "function"
    },
    {
      "inputs": [
        {
          "internalType": "address",
          "name": "from",
          "type": "address"
        },
        {
          "internalType": "address",
          "name": "to",
          "type": "address"
        },
        {
          "internalType": "uint256",
          "name": "amount",
          "type": "uint256"
        }
      ],
      "name": "transferFrom",
      "outputs": [
        {
          "internalType": "bool",
          "name": "",
          "type": "bool"
        }
      ],
      "stateMutability": "nonpayable",
      "type": "function"
    },
    {
      "inputs": [
        {
          "internalType": "address",
          "name": "newOwner",
          "type": "address"
        }
      ],
      "name": "transferOwnership",
      "outputs": [],
      "stateMutability": "nonpayable",
      "type": "function"
    },
    {
      "inputs": [],
      "name": "withdrawReward",
      "outputs": [],
      "stateMutability": "nonpayable",
      "type": "function"
    }
  ],
  "bytecode": "0x60806040523480156200001157600080fd5b5060405162002fc838038062002fc8833981810160405281019062000037919062000428565b6040518060400160405280600881526020017f4d7920546f6b656e0000000000000000000000000000000000000000000000008152506040518060400160405280600381526020017f4d544b00000000000000000000000000000000000000000000000000000000008152508160039080519060200190620000bb92919062000361565b508060049080519060200190620000d492919062000361565b505050620000f7620000eb6200011060201b60201c565b6200011860201b60201c565b620001093382620001de60201b60201c565b506200061a565b600033905090565b6000600560009054906101000a900473ffffffffffffffffffffffffffffffffffffffff16905081600560006101000a81548173ffffffffffffffffffffffffffffffffffffffff021916908373ffffffffffffffffffffffffffffffffffffffff1602179055508173ffffffffffffffffffffffffffffffffffffffff168173ffffffffffffffffffffffffffffffffffffffff167f8be0079c531659141344cd1fd0a4f28419497f9722a3daafe3b4186f6b6457e060405160405180910390a35050565b600073ffffffffffffffffffffffffffffffffffffffff168273ffffffffffffffffffffffffffffffffffffffff16141562000251576040517f08c379a000000000000000000000000000000000000000000000000000000000815260040162000248906200048c565b60405180910390fd5b62000265600083836200035760201b60201c565b8060026000828254620002799190620004dc565b92505081905550806000808473ffffffffffffffffffffffffffffffffffffffff1673ffffffffffffffffffffffffffffffffffffffff1681526020019081526020016000206000828254620002d09190620004dc565b925050819055508173ffffffffffffffffffffffffffffffffffffffff16600073ffffffffffffffffffffffffffffffffffffffff167fddf252ad1be2c89b69c2b068fc378daa952ba7f163c4a11628f55a4df523b3ef83604051620003379190620004ae565b60405180910390a362000353600083836200035c60201b60201c565b5050565b505050565b505050565b8280546200036f9062000543565b90600052602060002090601f016020900481019282620003935760008555620003df565b82601f10620003ae57805160ff1916838001178555620003df565b82800160010185558215620003df579182015b82811115620003de578251825591602001919060010190620003c1565b5b509050620003ee9190620003f2565b5090565b5b808211156200040d576000816000905550600101620003f3565b5090565b600081519050620004228162000600565b92915050565b6000602082840312156200043b57600080fd5b60006200044b8482850162000411565b91505092915050565b600062000463601f83620004cb565b91506200047082620005d7565b602082019050919050565b620004868162000539565b82525050565b60006020820190508181036000830152620004a78162000454565b9050919050565b6000602082019050620004c560008301846200047b565b92915050565b600082825260208201905092915050565b6000620004e98262000539565b9150620004f68362000539565b9250827fffffffffffffffffffffffffffffffffffffffffffffffffffffffffffffffff038211156200052e576200052d62000579565b5b828201905092915050565b6000819050919050565b600060028204905060018216806200055c57607f821691505b60208210811415620005735762000572620005a8565b5b50919050565b7f4e487b7100000000000000000000000000000000000000000000000000000000600052601160045260246000fd5b7f4e487b7100000000000000000000000000000000000000000000000000000000600052602260045260246000fd5b7f45524332303a206d696e7420746f20746865207a65726f206164647265737300600082015250565b6200060b8162000539565b81146200061757600080fd5b50565b61299e806200062a6000396000f3fe608060405234801561001057600080fd5b50600436106101a95760003560e01c80638da5cb5b116100f9578063bf9befb111610097578063dd62ed3e11610071578063dd62ed3e146104be578063e5c42fd1146104ee578063ef037b901461050a578063f2fde38b1461053b576101a9565b8063bf9befb114610466578063c885bc5814610484578063d82e39621461048e576101a9565b8063a0712d68116100d3578063a0712d68146103ce578063a457c2d7146103ea578063a9059cbb1461041a578063bcb0c2d71461044a576101a9565b80638da5cb5b14610376578063939624ab1461039457806395d89b41146103b0576101a9565b806323b872dd11610166578063426233601161014057806342623360146103025780636f4a2cd01461033257806370a082311461033c578063715018a61461036c576101a9565b806323b872dd14610284578063313ce567146102b457806339509351146102d2576101a9565b806306fdde03146101ae578063095ea7b3146101cc5780630e15561a146101fc57806318160ddd1461021a5780631bf6ddae146102385780631d62ebd914610254575b600080fd5b6101b6610557565b6040516101c391906121a8565b60405180910390f35b6101e660048036038101906101e19190611ecb565b6105e9565b6040516101f39190612164565b60405180910390f35b61020461060c565b604051610211919061234a565b60405180910390f35b6102226106f6565b60405161022f919061234a565b60405180910390f35b610252600480360381019061024d9190611f07565b610700565b005b61026e60048036038101906102699190611e17565b6107f4565b60405161027b919061234a565b60405180910390f35b61029e60048036038101906102999190611e7c565b61083d565b6040516102ab9190612164565b60405180910390f35b6102bc61086c565b6040516102c99190612365565b60405180910390f35b6102ec60048036038101906102e79190611ecb565b610875565b6040516102f99190612164565b60405180910390f35b61031c60048036038101906103179190611e17565b61091f565b604051610329919061234a565b60405180910390f35b61033a610968565b005b61035660048036038101906103519190611e17565b610b17565b604051610363919061234a565b60405180910390f35b610374610b5f565b005b61037e610be7565b60405161038b9190612149565b60405180910390f35b6103ae60048036038101906103a99190611f07565b610c11565b005b6103b8610d05565b6040516103c591906121a8565b60405180910390f35b6103e860048036038101906103e39190611f07565b610d97565b005b61040460048036038101906103ff9190611ecb565b610da4565b6040516104119190612164565b60405180910390f35b610434600480360381019061042f9190611ecb565b610e8e565b6040516104419190612164565b60405180910390f35b610464600480360381019061045f9190611e17565b610eb1565b005b61046e611032565b60405161047b919061234a565b60405180910390f35b61048c61111c565b005b6104a860048036038101906104a39190611e17565b6111b2565b6040516104b5919061234a565b60405180910390f35b6104d860048036038101906104d39190611e40565b611207565b6040516104e5919061234a565b60405180910390f35b61050860048036038101906105039190611e17565b61128e565b005b610524600480360381019061051f9190611e17565b611309565b60405161053292919061217f565b60405180910390f35b61055560048036038101906105509190611e17565b6113e2565b005b606060038054610566906124df565b80601f0160208091040260200160405190810160405280929190818152602001828054610592906124df565b80156105df5780601f106105b4576101008083540402835291602001916105df565b820191906000526020600020905b8154815290600101906020018083116105c257829003601f168201915b5050505050905090565b6000806105f46114da565b90506106018185856114e2565b600191505092915050565b6000806000905060005b6006805490508110156106ee576106d96008600060068481548110610664577f4e487b7100000000000000000000000000000000000000000000000000000000600052603260045260246000fd5b9060005260206000200160009054906101000a900473ffffffffffffffffffffffffffffffffffffffff1673ffffffffffffffffffffffffffffffffffffffff1673ffffffffffffffffffffffffffffffffffffffff16815260200190815260200160002054836116ad90919063ffffffff16565b915080806106e690612511565b915050610616565b508091505090565b6000600254905090565b61070a33826116c3565b6000600760003373ffffffffffffffffffffffffffffffffffffffff1673ffffffffffffffffffffffffffffffffffffffff16815260200190815260200160002054141561075c5761075b3361128e565b5b6107ae81600760003373ffffffffffffffffffffffffffffffffffffffff1673ffffffffffffffffffffffffffffffffffffffff168152602001908152602001600020546116ad90919063ffffffff16565b600760003373ffffffffffffffffffffffffffffffffffffffff1673ffffffffffffffffffffffffffffffffffffffff1681526020019081526020016000208190555050565b6000600860008373ffffffffffffffffffffffffffffffffffffffff1673ffffffffffffffffffffffffffffffffffffffff168152602001908152602001600020549050919050565b6000806108486114da565b905061085585828561189a565b610860858585611926565b60019150509392505050565b60006012905090565b6000806108806114da565b9050610914818585600160008673ffffffffffffffffffffffffffffffffffffffff1673ffffffffffffffffffffffffffffffffffffffff16815260200190815260200160002060008973ffffffffffffffffffffffffffffffffffffffff1673ffffffffffffffffffffffffffffffffffffffff1681526020019081526020016000205461090f919061239c565b6114e2565b600191505092915050565b6000600760008373ffffffffffffffffffffffffffffffffffffffff1673ffffffffffffffffffffffffffffffffffffffff168152602001908152602001600020549050919050565b6109706114da565b73ffffffffffffffffffffffffffffffffffffffff1661098e610be7565b73ffffffffffffffffffffffffffffffffffffffff16146109e4576040517f08c379a00000000000000000000000000000000000000000000000000000000081526004016109db9061228a565b60405180910390fd5b60005b600680549050811015610b1457600060068281548110610a30577f4e487b7100000000000000000000000000000000000000000000000000000000600052603260045260246000fd5b9060005260206000200160009054906101000a900473ffffffffffffffffffffffffffffffffffffffff1690506000610a68826111b2565b9050610abc81600860008573ffffffffffffffffffffffffffffffffffffffff1673ffffffffffffffffffffffffffffffffffffffff168152602001908152602001600020546116ad90919063ffffffff16565b600860008473ffffffffffffffffffffffffffffffffffffffff1673ffffffffffffffffffffffffffffffffffffffff1681526020019081526020016000208190555050508080610b0c90612511565b9150506109e7565b50565b60008060008373ffffffffffffffffffffffffffffffffffffffff1673ffffffffffffffffffffffffffffffffffffffff168152602001908152602001600020549050919050565b610b676114da565b73ffffffffffffffffffffffffffffffffffffffff16610b85610be7565b73ffffffffffffffffffffffffffffffffffffffff1614610bdb576040517f08c379a0000000000000000000000000000000000000000000000000000000008152600401610bd29061228a565b60405180910390fd5b610be56000611ba7565b565b6000600560009054906101000a900473ffffffffffffffffffffffffffffffffffffffff16905090565b610c6381600760003373ffffffffffffffffffffffffffffffffffffffff1673ffffffffffffffffffffffffffffffffffffffff16815260200190815260200160002054611c6d90919063ffffffff16565b600760003373ffffffffffffffffffffffffffffffffffffffff1673ffffffffffffffffffffffffffffffffffffffff168152602001908152602001600020819055506000600760003373ffffffffffffffffffffffffffffffffffffffff1673ffffffffffffffffffffffffffffffffffffffff168152602001908152602001600020541415610cf857610cf733610eb1565b5b610d023382611c83565b50565b606060048054610d14906124df565b80601f0160208091040260200160405190810160405280929190818152602001828054610d40906124df565b8015610d8d5780601f10610d6257610100808354040283529160200191610d8d565b820191906000526020600020905b815481529060010190602001808311610d7057829003601f168201915b5050505050905090565b610da13382611c83565b50565b600080610daf6114da565b90506000600160008373ffffffffffffffffffffffffffffffffffffffff1673ffffffffffffffffffffffffffffffffffffffff16815260200190815260200160002060008673ffffffffffffffffffffffffffffffffffffffff1673ffffffffffffffffffffffffffffffffffffffff16815260200190815260200160002054905083811015610e75576040517f08c379a0000000000000000000000000000000000000000000000000000000008152600401610e6c9061230a565b60405180910390fd5b610e8282868684036114e2565b60019250505092915050565b600080610e996114da565b9050610ea6818585611926565b600191505092915050565b600080610ebd83611309565b91509150811561102d5760066001600680549050610edb9190612423565b81548110610f12577f4e487b7100000000000000000000000000000000000000000000000000000000600052603260045260246000fd5b9060005260206000200160009054906101000a900473ffffffffffffffffffffffffffffffffffffffff1660068281548110610f77577f4e487b7100000000000000000000000000000000000000000000000000000000600052603260045260246000fd5b9060005260206000200160006101000a81548173ffffffffffffffffffffffffffffffffffffffff021916908373ffffffffffffffffffffffffffffffffffffffff1602179055506006805480610ff7577f4e487b7100000000000000000000000000000000000000000000000000000000600052603160045260246000fd5b6001900381819060005260206000200160006101000a81549073ffffffffffffffffffffffffffffffffffffffff021916905590555b505050565b6000806000905060005b600680549050811015611114576110ff600760006006848154811061108a577f4e487b7100000000000000000000000000000000000000000000000000000000600052603260045260246000fd5b9060005260206000200160009054906101000a900473ffffffffffffffffffffffffffffffffffffffff1673ffffffffffffffffffffffffffffffffffffffff1673ffffffffffffffffffffffffffffffffffffffff16815260200190815260200160002054836116ad90919063ffffffff16565b9150808061110c90612511565b91505061103c565b508091505090565b6000600860003373ffffffffffffffffffffffffffffffffffffffff1673ffffffffffffffffffffffffffffffffffffffff1681526020019081526020016000205490506000600860003373ffffffffffffffffffffffffffffffffffffffff1673ffffffffffffffffffffffffffffffffffffffff168152602001908152602001600020819055506111af3382611c83565b50565b60006064600760008473ffffffffffffffffffffffffffffffffffffffff1673ffffffffffffffffffffffffffffffffffffffff1681526020019081526020016000205461120091906123f2565b9050919050565b6000600160008473ffffffffffffffffffffffffffffffffffffffff1673ffffffffffffffffffffffffffffffffffffffff16815260200190815260200160002060008373ffffffffffffffffffffffffffffffffffffffff1673ffffffffffffffffffffffffffffffffffffffff16815260200190815260200160002054905092915050565b600061129982611309565b50905080611305576006829080600181540180825580915050600190039060005260206000200160009091909190916101000a81548173ffffffffffffffffffffffffffffffffffffffff021916908373ffffffffffffffffffffffffffffffffffffffff1602179055505b5050565b60008060005b6006805490508110156113d45760068181548110611356577f4e487b7100000000000000000000000000000000000000000000000000000000600052603260045260246000fd5b9060005260206000200160009054906101000a900473ffffffffffffffffffffffffffffffffffffffff1673ffffffffffffffffffffffffffffffffffffffff168473ffffffffffffffffffffffffffffffffffffffff1614156113c15760018192509250506113dd565b80806113cc90612511565b91505061130f565b50600080915091505b915091565b6113ea6114da565b73ffffffffffffffffffffffffffffffffffffffff16611408610be7565b73ffffffffffffffffffffffffffffffffffffffff161461145e576040517f08c379a00000000000000000000000000000000000000000000000000000000081526004016114559061228a565b60405180910390fd5b600073ffffffffffffffffffffffffffffffffffffffff168173ffffffffffffffffffffffffffffffffffffffff1614156114ce576040517f08c379a00000000000000000000000000000000000000000000000000000000081526004016114c59061220a565b60405180910390fd5b6114d781611ba7565b50565b600033905090565b600073ffffffffffffffffffffffffffffffffffffffff168373ffffffffffffffffffffffffffffffffffffffff161415611552576040517f08c379a0000000000000000000000000000000000000000000000000000000008152600401611549906122ea565b60405180910390fd5b600073ffffffffffffffffffffffffffffffffffffffff168273ffffffffffffffffffffffffffffffffffffffff1614156115c2576040517f08c379a00000000000000000000000000000000000000000000000000000000081526004016115b99061222a565b60405180910390fd5b80600160008573ffffffffffffffffffffffffffffffffffffffff1673ffffffffffffffffffffffffffffffffffffffff16815260200190815260200160002060008473ffffffffffffffffffffffffffffffffffffffff1673ffffffffffffffffffffffffffffffffffffffff168152602001908152602001600020819055508173ffffffffffffffffffffffffffffffffffffffff168373ffffffffffffffffffffffffffffffffffffffff167f8c5be1e5ebec7d5bd14f71427d1e84f3dd0314c0f7b2291e5b200ac8c7c3b925836040516116a0919061234a565b60405180910390a3505050565b600081836116bb919061239c565b905092915050565b600073ffffffffffffffffffffffffffffffffffffffff168273ffffffffffffffffffffffffffffffffffffffff161415611733576040517f08c379a000000000000000000000000000000000000000000000000000000000815260040161172a906122aa565b60405180910390fd5b61173f82600083611de3565b60008060008473ffffffffffffffffffffffffffffffffffffffff1673ffffffffffffffffffffffffffffffffffffffff168152602001908152602001600020549050818110156117c5576040517f08c379a00000000000000000000000000000000000000000000000000000000081526004016117bc906121ea565b60405180910390fd5b8181036000808573ffffffffffffffffffffffffffffffffffffffff1673ffffffffffffffffffffffffffffffffffffffff16815260200190815260200160002081905550816002600082825461181c9190612423565b92505081905550600073ffffffffffffffffffffffffffffffffffffffff168373ffffffffffffffffffffffffffffffffffffffff167fddf252ad1be2c89b69c2b068fc378daa952ba7f163c4a11628f55a4df523b3ef84604051611881919061234a565b60405180910390a361189583600084611de8565b505050565b60006118a68484611207565b90507fffffffffffffffffffffffffffffffffffffffffffffffffffffffffffffffff81146119205781811015611912576040517f08c379a00000000000000000000000000000000000000000000000000000000081526004016119099061224a565b60405180910390fd5b61191f84848484036114e2565b5b50505050565b600073ffffffffffffffffffffffffffffffffffffffff168373ffffffffffffffffffffffffffffffffffffffff161415611996576040517f08c379a000000000000000000000000000000000000000000000000000000000815260040161198d906122ca565b60405180910390fd5b600073ffffffffffffffffffffffffffffffffffffffff168273ffffffffffffffffffffffffffffffffffffffff161415611a06576040517f08c379a00000000000000000000000000000000000000000000000000000000081526004016119fd906121ca565b60405180910390fd5b611a11838383611de3565b60008060008573ffffffffffffffffffffffffffffffffffffffff1673ffffffffffffffffffffffffffffffffffffffff16815260200190815260200160002054905081811015611a97576040517f08c379a0000000000000000000000000000000000000000000000000000000008152600401611a8e9061226a565b60405180910390fd5b8181036000808673ffffffffffffffffffffffffffffffffffffffff1673ffffffffffffffffffffffffffffffffffffffff16815260200190815260200160002081905550816000808573ffffffffffffffffffffffffffffffffffffffff1673ffffffffffffffffffffffffffffffffffffffff1681526020019081526020016000206000828254611b2a919061239c565b925050819055508273ffffffffffffffffffffffffffffffffffffffff168473ffffffffffffffffffffffffffffffffffffffff167fddf252ad1be2c89b69c2b068fc378daa952ba7f163c4a11628f55a4df523b3ef84604051611b8e919061234a565b60405180910390a3611ba1848484611de8565b50505050565b6000600560009054906101000a900473ffffffffffffffffffffffffffffffffffffffff16905081600560006101000a81548173ffffffffffffffffffffffffffffffffffffffff021916908373ffffffffffffffffffffffffffffffffffffffff1602179055508173ffffffffffffffffffffffffffffffffffffffff168173ffffffffffffffffffffffffffffffffffffffff167f8be0079c531659141344cd1fd0a4f28419497f9722a3daafe3b4186f6b6457e060405160405180910390a35050565b60008183611c7b9190612423565b905092915050565b600073ffffffffffffffffffffffffffffffffffffffff168273ffffffffffffffffffffffffffffffffffffffff161415611cf3576040517f08c379a0000000000000000000000000000000000000000000000000000000008152600401611cea9061232a565b60405180910390fd5b611cff60008383611de3565b8060026000828254611d11919061239c565b92505081905550806000808473ffffffffffffffffffffffffffffffffffffffff1673ffffffffffffffffffffffffffffffffffffffff1681526020019081526020016000206000828254611d66919061239c565b925050819055508173ffffffffffffffffffffffffffffffffffffffff16600073ffffffffffffffffffffffffffffffffffffffff167fddf252ad1be2c89b69c2b068fc378daa952ba7f163c4a11628f55a4df523b3ef83604051611dcb919061234a565b60405180910390a3611ddf60008383611de8565b5050565b505050565b505050565b600081359050611dfc8161293a565b92915050565b600081359050611e1181612951565b92915050565b600060208284031215611e2957600080fd5b6000611e3784828501611ded565b91505092915050565b60008060408385031215611e5357600080fd5b6000611e6185828601611ded565b9250506020611e7285828601611ded565b9150509250929050565b600080600060608486031215611e9157600080fd5b6000611e9f86828701611ded565b9350506020611eb086828701611ded565b9250506040611ec186828701611e02565b9150509250925092565b60008060408385031215611ede57600080fd5b6000611eec85828601611ded565b9250506020611efd85828601611e02565b9150509250929050565b600060208284031215611f1957600080fd5b6000611f2784828501611e02565b91505092915050565b611f3981612457565b82525050565b611f4881612469565b82525050565b6000611f5982612380565b611f63818561238b565b9350611f738185602086016124ac565b611f7c816125e7565b840191505092915050565b6000611f9460238361238b565b9150611f9f826125f8565b604082019050919050565b6000611fb760228361238b565b9150611fc282612647565b604082019050919050565b6000611fda60268361238b565b9150611fe582612696565b604082019050919050565b6000611ffd60228361238b565b9150612008826126e5565b604082019050919050565b6000612020601d8361238b565b915061202b82612734565b602082019050919050565b600061204360268361238b565b915061204e8261275d565b604082019050919050565b600061206660208361238b565b9150612071826127ac565b602082019050919050565b600061208960218361238b565b9150612094826127d5565b604082019050919050565b60006120ac60258361238b565b91506120b782612824565b604082019050919050565b60006120cf60248361238b565b91506120da82612873565b604082019050919050565b60006120f260258361238b565b91506120fd826128c2565b604082019050919050565b6000612115601f8361238b565b915061212082612911565b602082019050919050565b61213481612495565b82525050565b6121438161249f565b82525050565b600060208201905061215e6000830184611f30565b92915050565b60006020820190506121796000830184611f3f565b92915050565b60006040820190506121946000830185611f3f565b6121a1602083018461212b565b9392505050565b600060208201905081810360008301526121c28184611f4e565b905092915050565b600060208201905081810360008301526121e381611f87565b9050919050565b6000602082019050818103600083015261220381611faa565b9050919050565b6000602082019050818103600083015261222381611fcd565b9050919050565b6000602082019050818103600083015261224381611ff0565b9050919050565b6000602082019050818103600083015261226381612013565b9050919050565b6000602082019050818103600083015261228381612036565b9050919050565b600060208201905081810360008301526122a381612059565b9050919050565b600060208201905081810360008301526122c38161207c565b9050919050565b600060208201905081810360008301526122e38161209f565b9050919050565b60006020820190508181036000830152612303816120c2565b9050919050565b60006020820190508181036000830152612323816120e5565b9050919050565b6000602082019050818103600083015261234381612108565b9050919050565b600060208201905061235f600083018461212b565b92915050565b600060208201905061237a600083018461213a565b92915050565b600081519050919050565b600082825260208201905092915050565b60006123a782612495565b91506123b283612495565b9250827fffffffffffffffffffffffffffffffffffffffffffffffffffffffffffffffff038211156123e7576123e661255a565b5b828201905092915050565b60006123fd82612495565b915061240883612495565b92508261241857612417612589565b5b828204905092915050565b600061242e82612495565b915061243983612495565b92508282101561244c5761244b61255a565b5b828203905092915050565b600061246282612475565b9050919050565b60008115159050919050565b600073ffffffffffffffffffffffffffffffffffffffff82169050919050565b6000819050919050565b600060ff82169050919050565b60005b838110156124ca5780820151818401526020810190506124af565b838111156124d9576000848401525b50505050565b600060028204905060018216806124f757607f821691505b6020821081141561250b5761250a6125b8565b5b50919050565b600061251c82612495565b91507fffffffffffffffffffffffffffffffffffffffffffffffffffffffffffffffff82141561254f5761254e61255a565b5b600182019050919050565b7f4e487b7100000000000000000000000000000000000000000000000000000000600052601160045260246000fd5b7f4e487b7100000000000000000000000000000000000000000000000000000000600052601260045260246000fd5b7f4e487b7100000000000000000000000000000000000000000000000000000000600052602260045260246000fd5b6000601f19601f8301169050919050565b7f45524332303a207472616e7366657220746f20746865207a65726f206164647260008201527f6573730000000000000000000000000000000000000000000000000000000000602082015250565b7f45524332303a206275726e20616d6f756e7420657863656564732062616c616e60008201527f6365000000000000000000000000000000000000000000000000000000000000602082015250565b7f4f776e61626c653a206e6577206f776e657220697320746865207a65726f206160008201527f6464726573730000000000000000000000000000000000000000000000000000602082015250565b7f45524332303a20617070726f766520746f20746865207a65726f20616464726560008201527f7373000000000000000000000000000000000000000000000000000000000000602082015250565b7f45524332303a20696e73756666696369656e7420616c6c6f77616e6365000000600082015250565b7f45524332303a207472616e7366657220616d6f756e742065786365656473206260008201527f616c616e63650000000000000000000000000000000000000000000000000000602082015250565b7f4f776e61626c653a2063616c6c6572206973206e6f7420746865206f776e6572600082015250565b7f45524332303a206275726e2066726f6d20746865207a65726f2061646472657360008201527f7300000000000000000000000000000000000000000000000000000000000000602082015250565b7f45524332303a207472616e736665722066726f6d20746865207a65726f20616460008201527f6472657373000000000000000000000000000000000000000000000000000000602082015250565b7f45524332303a20617070726f76652066726f6d20746865207a65726f2061646460008201527f7265737300000000000000000000000000000000000000000000000000000000602082015250565b7f45524332303a2064656372656173656420616c6c6f77616e63652062656c6f7760008201527f207a65726f000000000000000000000000000000000000000000000000000000602082015250565b7f45524332303a206d696e7420746f20746865207a65726f206164647265737300600082015250565b61294381612457565b811461294e57600080fd5b50565b61295a81612495565b811461296557600080fd5b5056fea2646970667358221220e2c1be8277d22aa021bab538f0f3e6efa7d12d441c1c29bd61e8e9cd106f50c664736f6c63430008010033",
  "linkReferences": {},
  "deployedLinkReferences": {}
}