{
  "_format": "hh-sol-artifact-1",
  "contractName": "MyToken",
  "sourceName": "contracts/MyToken.sol",
  "abi": [
    {
      "inputs": [
        {
          "internalType": "uint256",
          "name": "initialSupply",
          "type": "uint256"
        }
      ],
      "stateMutability": "nonpayable",
      "type": "constructor"
    },
    {
      "anonymous": false,
      "inputs": [
        {
          "indexed": true,
          "internalType": "address",
          "name": "owner",
          "type": "address"
        },
        {
          "indexed": true,
          "internalType": "address",
          "name": "spender",
          "type": "address"
        },
        {
          "indexed": false,
          "internalType": "uint256",
          "name": "value",
          "type": "uint256"
        }
      ],
      "name": "Approval",
      "type": "event"
    },
    {
      "anonymous": false,
      "inputs": [
        {
          "indexed": false,
          "internalType": "address",
          "name": "from",
          "type": "address"
        },
        {
          "indexed": false,
          "internalType": "uint256",
          "name": "amount",
          "type": "uint256"
        },
        {
          "indexed": false,
          "internalType": "uint256",
          "name": "timestamp",
          "type": "uint256"
        }
      ],
      "name": "ClaimedEvent",
      "type": "event"
    },
    {
      "anonymous": false,
      "inputs": [
        {
          "indexed": true,
          "internalType": "address",
          "name": "previousOwner",
          "type": "address"
        },
        {
          "indexed": true,
          "internalType": "address",
          "name": "newOwner",
          "type": "address"
        }
      ],
      "name": "OwnershipTransferred",
      "type": "event"
    },
    {
      "anonymous": false,
      "inputs": [
        {
          "indexed": false,
          "internalType": "address",
          "name": "from",
          "type": "address"
        },
        {
          "indexed": false,
          "internalType": "uint256",
          "name": "amount",
          "type": "uint256"
        },
        {
          "indexed": false,
          "internalType": "uint256",
          "name": "timestamp",
          "type": "uint256"
        }
      ],
      "name": "StakeEvent",
      "type": "event"
    },
    {
      "anonymous": false,
      "inputs": [
        {
          "indexed": true,
          "internalType": "address",
          "name": "from",
          "type": "address"
        },
        {
          "indexed": true,
          "internalType": "address",
          "name": "to",
          "type": "address"
        },
        {
          "indexed": false,
          "internalType": "uint256",
          "name": "value",
          "type": "uint256"
        }
      ],
      "name": "Transfer",
      "type": "event"
    },
    {
      "anonymous": false,
      "inputs": [
        {
          "indexed": false,
          "internalType": "address",
          "name": "from",
          "type": "address"
        },
        {
          "indexed": false,
          "internalType": "uint256",
          "name": "amount",
          "type": "uint256"
        },
        {
          "indexed": false,
          "internalType": "uint256",
          "name": "timestamp",
          "type": "uint256"
        }
      ],
      "name": "UnstakeEvent",
      "type": "event"
    },
    {
      "inputs": [
        {
          "internalType": "address",
          "name": "_stakeholder",
          "type": "address"
        }
      ],
      "name": "addStakeholder",
      "outputs": [],
      "stateMutability": "nonpayable",
      "type": "function"
    },
    {
      "inputs": [
        {
          "internalType": "address",
          "name": "owner",
          "type": "address"
        },
        {
          "internalType": "address",
          "name": "spender",
          "type": "address"
        }
      ],
      "name": "allowance",
      "outputs": [
        {
          "internalType": "uint256",
          "name": "",
          "type": "uint256"
        }
      ],
      "stateMutability": "view",
      "type": "function"
    },
    {
      "inputs": [
        {
          "internalType": "address",
          "name": "spender",
          "type": "address"
        },
        {
          "internalType": "uint256",
          "name": "amount",
          "type": "uint256"
        }
      ],
      "name": "approve",
      "outputs": [
        {
          "internalType": "bool",
          "name": "",
          "type": "bool"
        }
      ],
      "stateMutability": "nonpayable",
      "type": "function"
    },
    {
      "inputs": [
        {
          "internalType": "address",
          "name": "account",
          "type": "address"
        }
      ],
      "name": "balanceOf",
      "outputs": [
        {
          "internalType": "uint256",
          "name": "",
          "type": "uint256"
        }
      ],
      "stateMutability": "view",
      "type": "function"
    },
    {
      "inputs": [
        {
          "internalType": "address",
          "name": "_stakeholder",
          "type": "address"
        }
      ],
      "name": "calculateReward",
      "outputs": [
        {
          "internalType": "uint256",
          "name": "",
          "type": "uint256"
        }
      ],
      "stateMutability": "view",
      "type": "function"
    },
    {
      "inputs": [
        {
          "internalType": "uint256",
          "name": "_stake",
          "type": "uint256"
        }
      ],
      "name": "createStake",
      "outputs": [],
      "stateMutability": "nonpayable",
      "type": "function"
    },
    {
      "inputs": [],
      "name": "decimals",
      "outputs": [
        {
          "internalType": "uint8",
          "name": "",
          "type": "uint8"
        }
      ],
      "stateMutability": "view",
      "type": "function"
    },
    {
      "inputs": [
        {
          "internalType": "address",
          "name": "spender",
          "type": "address"
        },
        {
          "internalType": "uint256",
          "name": "subtractedValue",
          "type": "uint256"
        }
      ],
      "name": "decreaseAllowance",
      "outputs": [
        {
          "internalType": "bool",
          "name": "",
          "type": "bool"
        }
      ],
      "stateMutability": "nonpayable",
      "type": "function"
    },
    {
      "inputs": [],
      "name": "distributeRewards",
      "outputs": [],
      "stateMutability": "nonpayable",
      "type": "function"
    },
    {
      "inputs": [
        {
          "internalType": "address",
          "name": "spender",
          "type": "address"
        },
        {
          "internalType": "uint256",
          "name": "addedValue",
          "type": "uint256"
        }
      ],
      "name": "increaseAllowance",
      "outputs": [
        {
          "internalType": "bool",
          "name": "",
          "type": "bool"
        }
      ],
      "stateMutability": "nonpayable",
      "type": "function"
    },
    {
      "inputs": [
        {
          "internalType": "address",
          "name": "_address",
          "type": "address"
        }
      ],
      "name": "isStakeholder",
      "outputs": [
        {
          "internalType": "bool",
          "name": "",
          "type": "bool"
        },
        {
          "internalType": "uint256",
          "name": "",
          "type": "uint256"
        }
      ],
      "stateMutability": "view",
      "type": "function"
    },
    {
      "inputs": [
        {
          "internalType": "uint256",
          "name": "amount",
          "type": "uint256"
        }
      ],
      "name": "mint",
      "outputs": [],
      "stateMutability": "nonpayable",
      "type": "function"
    },
    {
      "inputs": [],
      "name": "name",
      "outputs": [
        {
          "internalType": "string",
          "name": "",
          "type": "string"
        }
      ],
      "stateMutability": "view",
      "type": "function"
    },
    {
      "inputs": [],
      "name": "owner",
      "outputs": [
        {
          "internalType": "address",
          "name": "",
          "type": "address"
        }
      ],
      "stateMutability": "view",
      "type": "function"
    },
    {
      "inputs": [
        {
          "internalType": "uint256",
          "name": "_stake",
          "type": "uint256"
        }
      ],
      "name": "removeStake",
      "outputs": [],
      "stateMutability": "nonpayable",
      "type": "function"
    },
    {
      "inputs": [
        {
          "internalType": "address",
          "name": "_stakeholder",
          "type": "address"
        }
      ],
      "name": "removeStakeholder",
      "outputs": [],
      "stateMutability": "nonpayable",
      "type": "function"
    },
    {
      "inputs": [],
      "name": "renounceOwnership",
      "outputs": [],
      "stateMutability": "nonpayable",
      "type": "function"
    },
    {
      "inputs": [
        {
          "internalType": "address",
          "name": "_stakeholder",
          "type": "address"
        }
      ],
      "name": "rewardOf",
      "outputs": [
        {
          "internalType": "uint256",
          "name": "",
          "type": "uint256"
        }
      ],
      "stateMutability": "view",
      "type": "function"
    },
    {
      "inputs": [
        {
          "internalType": "address",
          "name": "_stakeholder",
          "type": "address"
        }
      ],
      "name": "stakeOf",
      "outputs": [
        {
          "internalType": "uint256",
          "name": "",
          "type": "uint256"
        }
      ],
      "stateMutability": "view",
      "type": "function"
    },
    {
      "inputs": [],
      "name": "symbol",
      "outputs": [
        {
          "internalType": "string",
          "name": "",
          "type": "string"
        }
      ],
      "stateMutability": "view",
      "type": "function"
    },
    {
      "inputs": [],
      "name": "totalRewards",
      "outputs": [
        {
          "internalType": "uint256",
          "name": "",
          "type": "uint256"
        }
      ],
      "stateMutability": "view",
      "type": "function"
    },
    {
      "inputs": [],
      "name": "totalStakes",
      "outputs": [
        {
          "internalType": "uint256",
          "name": "",
          "type": "uint256"
        }
      ],
      "stateMutability": "view",
      "type": "function"
    },
    {
      "inputs": [],
      "name": "totalSupply",
      "outputs": [
        {
          "internalType": "uint256",
          "name": "",
          "type": "uint256"
        }
      ],
      "stateMutability": "view",
      "type": "function"
    },
    {
      "inputs": [
        {
          "internalType": "address",
          "name": "to",
          "type": "address"
        },
        {
          "internalType": "uint256",
          "name": "amount",
          "type": "uint256"
        }
      ],
      "name": "transfer",
      "outputs": [
        {
          "internalType": "bool",
          "name": "",
          "type": "bool"
        }
      ],
      "stateMutability": "nonpayable",
      "type": "function"
    },
    {
      "inputs": [
        {
          "internalType": "address",
          "name": "from",
          "type": "address"
        },
        {
          "internalType": "address",
          "name": "to",
          "type": "address"
        },
        {
          "internalType": "uint256",
          "name": "amount",
          "type": "uint256"
        }
      ],
      "name": "transferFrom",
      "outputs": [
        {
          "internalType": "bool",
          "name": "",
          "type": "bool"
        }
      ],
      "stateMutability": "nonpayable",
      "type": "function"
    },
    {
      "inputs": [
        {
          "internalType": "address",
          "name": "newOwner",
          "type": "address"
        }
      ],
      "name": "transferOwnership",
      "outputs": [],
      "stateMutability": "nonpayable",
      "type": "function"
    },
    {
      "inputs": [],
      "name": "withdrawReward",
      "outputs": [],
      "stateMutability": "nonpayable",
      "type": "function"
    }
  ],
  "bytecode": "0x60806040523480156200001157600080fd5b50604051620031e1380380620031e1833981810160405281019062000037919062000428565b6040518060400160405280600881526020017f4d7920546f6b656e0000000000000000000000000000000000000000000000008152506040518060400160405280600381526020017f4d544b00000000000000000000000000000000000000000000000000000000008152508160039080519060200190620000bb92919062000361565b508060049080519060200190620000d492919062000361565b505050620000f7620000eb6200011060201b60201c565b6200011860201b60201c565b620001093382620001de60201b60201c565b506200061a565b600033905090565b6000600560009054906101000a900473ffffffffffffffffffffffffffffffffffffffff16905081600560006101000a81548173ffffffffffffffffffffffffffffffffffffffff021916908373ffffffffffffffffffffffffffffffffffffffff1602179055508173ffffffffffffffffffffffffffffffffffffffff168173ffffffffffffffffffffffffffffffffffffffff167f8be0079c531659141344cd1fd0a4f28419497f9722a3daafe3b4186f6b6457e060405160405180910390a35050565b600073ffffffffffffffffffffffffffffffffffffffff168273ffffffffffffffffffffffffffffffffffffffff16141562000251576040517f08c379a000000000000000000000000000000000000000000000000000000000815260040162000248906200048c565b60405180910390fd5b62000265600083836200035760201b60201c565b8060026000828254620002799190620004dc565b92505081905550806000808473ffffffffffffffffffffffffffffffffffffffff1673ffffffffffffffffffffffffffffffffffffffff1681526020019081526020016000206000828254620002d09190620004dc565b925050819055508173ffffffffffffffffffffffffffffffffffffffff16600073ffffffffffffffffffffffffffffffffffffffff167fddf252ad1be2c89b69c2b068fc378daa952ba7f163c4a11628f55a4df523b3ef83604051620003379190620004ae565b60405180910390a362000353600083836200035c60201b60201c565b5050565b505050565b505050565b8280546200036f9062000543565b90600052602060002090601f016020900481019282620003935760008555620003df565b82601f10620003ae57805160ff1916838001178555620003df565b82800160010185558215620003df579182015b82811115620003de578251825591602001919060010190620003c1565b5b509050620003ee9190620003f2565b5090565b5b808211156200040d576000816000905550600101620003f3565b5090565b600081519050620004228162000600565b92915050565b6000602082840312156200043b57600080fd5b60006200044b8482850162000411565b91505092915050565b600062000463601f83620004cb565b91506200047082620005d7565b602082019050919050565b620004868162000539565b82525050565b60006020820190508181036000830152620004a78162000454565b9050919050565b6000602082019050620004c560008301846200047b565b92915050565b600082825260208201905092915050565b6000620004e98262000539565b9150620004f68362000539565b9250827fffffffffffffffffffffffffffffffffffffffffffffffffffffffffffffffff038211156200052e576200052d62000579565b5b828201905092915050565b6000819050919050565b600060028204905060018216806200055c57607f821691505b60208210811415620005735762000572620005a8565b5b50919050565b7f4e487b7100000000000000000000000000000000000000000000000000000000600052601160045260246000fd5b7f4e487b7100000000000000000000000000000000000000000000000000000000600052602260045260246000fd5b7f45524332303a206d696e7420746f20746865207a65726f206164647265737300600082015250565b6200060b8162000539565b81146200061757600080fd5b50565b612bb7806200062a6000396000f3fe608060405234801561001057600080fd5b50600436106101a95760003560e01c80638da5cb5b116100f9578063bf9befb111610097578063dd62ed3e11610071578063dd62ed3e146104be578063e5c42fd1146104ee578063ef037b901461050a578063f2fde38b1461053b576101a9565b8063bf9befb114610466578063c885bc5814610484578063d82e39621461048e576101a9565b8063a0712d68116100d3578063a0712d68146103ce578063a457c2d7146103ea578063a9059cbb1461041a578063bcb0c2d71461044a576101a9565b80638da5cb5b14610376578063939624ab1461039457806395d89b41146103b0576101a9565b806323b872dd11610166578063426233601161014057806342623360146103025780636f4a2cd01461033257806370a082311461033c578063715018a61461036c576101a9565b806323b872dd14610284578063313ce567146102b457806339509351146102d2576101a9565b806306fdde03146101ae578063095ea7b3146101cc5780630e15561a146101fc57806318160ddd1461021a5780631bf6ddae146102385780631d62ebd914610254575b600080fd5b6101b6610557565b6040516101c391906123c1565b60405180910390f35b6101e660048036038101906101e191906120ad565b6105e9565b6040516101f3919061237d565b60405180910390f35b61020461060c565b6040516102119190612563565b60405180910390f35b6102226106f6565b60405161022f9190612563565b60405180910390f35b610252600480360381019061024d91906120e9565b610700565b005b61026e60048036038101906102699190611ff9565b610960565b60405161027b9190612563565b60405180910390f35b61029e6004803603810190610299919061205e565b6109a9565b6040516102ab919061237d565b60405180910390f35b6102bc6109d8565b6040516102c9919061257e565b60405180910390f35b6102ec60048036038101906102e791906120ad565b6109e1565b6040516102f9919061237d565b60405180910390f35b61031c60048036038101906103179190611ff9565b610a8b565b6040516103299190612563565b60405180910390f35b61033a610ad4565b005b61035660048036038101906103519190611ff9565b610c83565b6040516103639190612563565b60405180910390f35b610374610ccb565b005b61037e610d53565b60405161038b919061232b565b60405180910390f35b6103ae60048036038101906103a991906120e9565b610d7d565b005b6103b8610eac565b6040516103c591906123c1565b60405180910390f35b6103e860048036038101906103e391906120e9565b610f3e565b005b61040460048036038101906103ff91906120ad565b610f86565b604051610411919061237d565b60405180910390f35b610434600480360381019061042f91906120ad565b611070565b604051610441919061237d565b60405180910390f35b610464600480360381019061045f9190611ff9565b611093565b005b61046e611214565b60405161047b9190612563565b60405180910390f35b61048c6112fe565b005b6104a860048036038101906104a39190611ff9565b611394565b6040516104b59190612563565b60405180910390f35b6104d860048036038101906104d39190612022565b6113e9565b6040516104e59190612563565b60405180910390f35b61050860048036038101906105039190611ff9565b611470565b005b610524600480360381019061051f9190611ff9565b6114eb565b604051610532929190612398565b60405180910390f35b61055560048036038101906105509190611ff9565b6115c4565b005b606060038054610566906126f8565b80601f0160208091040260200160405190810160405280929190818152602001828054610592906126f8565b80156105df5780601f106105b4576101008083540402835291602001916105df565b820191906000526020600020905b8154815290600101906020018083116105c257829003601f168201915b5050505050905090565b6000806105f46116bc565b90506106018185856116c4565b600191505092915050565b6000806000905060005b6006805490508110156106ee576106d96008600060068481548110610664577f4e487b7100000000000000000000000000000000000000000000000000000000600052603260045260246000fd5b9060005260206000200160009054906101000a900473ffffffffffffffffffffffffffffffffffffffff1673ffffffffffffffffffffffffffffffffffffffff1673ffffffffffffffffffffffffffffffffffffffff168152602001908152602001600020548361188f90919063ffffffff16565b915080806106e69061272a565b915050610616565b508091505090565b6000600254905090565b61070a33826118a5565b6000600760003373ffffffffffffffffffffffffffffffffffffffff1673ffffffffffffffffffffffffffffffffffffffff16815260200190815260200160002054141561075c5761075b33611470565b5b6107ae81600760003373ffffffffffffffffffffffffffffffffffffffff1673ffffffffffffffffffffffffffffffffffffffff1681526020019081526020016000205461188f90919063ffffffff16565b600760003373ffffffffffffffffffffffffffffffffffffffff1673ffffffffffffffffffffffffffffffffffffffff1681526020019081526020016000208190555060005b6006805490508110156109215760006006828154811061083d577f4e487b7100000000000000000000000000000000000000000000000000000000600052603260045260246000fd5b9060005260206000200160009054906101000a900473ffffffffffffffffffffffffffffffffffffffff169050600061087582611394565b90506108c981600860008573ffffffffffffffffffffffffffffffffffffffff1673ffffffffffffffffffffffffffffffffffffffff1681526020019081526020016000205461188f90919063ffffffff16565b600860008473ffffffffffffffffffffffffffffffffffffffff1673ffffffffffffffffffffffffffffffffffffffff16815260200190815260200160002081905550505080806109199061272a565b9150506107f4565b507f9dbaf9c586508abc91d6ee4e67d3c7a82ccb09bca5d9fe2c3b690f27b7e0a25633824260405161095593929190612346565b60405180910390a150565b6000600860008373ffffffffffffffffffffffffffffffffffffffff1673ffffffffffffffffffffffffffffffffffffffff168152602001908152602001600020549050919050565b6000806109b46116bc565b90506109c1858285611a7c565b6109cc858585611b08565b60019150509392505050565b60006012905090565b6000806109ec6116bc565b9050610a80818585600160008673ffffffffffffffffffffffffffffffffffffffff1673ffffffffffffffffffffffffffffffffffffffff16815260200190815260200160002060008973ffffffffffffffffffffffffffffffffffffffff1673ffffffffffffffffffffffffffffffffffffffff16815260200190815260200160002054610a7b91906125b5565b6116c4565b600191505092915050565b6000600760008373ffffffffffffffffffffffffffffffffffffffff1673ffffffffffffffffffffffffffffffffffffffff168152602001908152602001600020549050919050565b610adc6116bc565b73ffffffffffffffffffffffffffffffffffffffff16610afa610d53565b73ffffffffffffffffffffffffffffffffffffffff1614610b50576040517f08c379a0000000000000000000000000000000000000000000000000000000008152600401610b47906124a3565b60405180910390fd5b60005b600680549050811015610c8057600060068281548110610b9c577f4e487b7100000000000000000000000000000000000000000000000000000000600052603260045260246000fd5b9060005260206000200160009054906101000a900473ffffffffffffffffffffffffffffffffffffffff1690506000610bd482611394565b9050610c2881600860008573ffffffffffffffffffffffffffffffffffffffff1673ffffffffffffffffffffffffffffffffffffffff1681526020019081526020016000205461188f90919063ffffffff16565b600860008473ffffffffffffffffffffffffffffffffffffffff1673ffffffffffffffffffffffffffffffffffffffff1681526020019081526020016000208190555050508080610c789061272a565b915050610b53565b50565b60008060008373ffffffffffffffffffffffffffffffffffffffff1673ffffffffffffffffffffffffffffffffffffffff168152602001908152602001600020549050919050565b610cd36116bc565b73ffffffffffffffffffffffffffffffffffffffff16610cf1610d53565b73ffffffffffffffffffffffffffffffffffffffff1614610d47576040517f08c379a0000000000000000000000000000000000000000000000000000000008152600401610d3e906124a3565b60405180910390fd5b610d516000611d89565b565b6000600560009054906101000a900473ffffffffffffffffffffffffffffffffffffffff16905090565b610dcf81600760003373ffffffffffffffffffffffffffffffffffffffff1673ffffffffffffffffffffffffffffffffffffffff16815260200190815260200160002054611e4f90919063ffffffff16565b600760003373ffffffffffffffffffffffffffffffffffffffff1673ffffffffffffffffffffffffffffffffffffffff168152602001908152602001600020819055506000600760003373ffffffffffffffffffffffffffffffffffffffff1673ffffffffffffffffffffffffffffffffffffffff168152602001908152602001600020541415610e6457610e6333611093565b5b610e6e3382611e65565b7f38a65ee4617aeeac7f05fa0fc44cb15b94c7d106663b3e2518f2d013969fb6aa338242604051610ea193929190612346565b60405180910390a150565b606060048054610ebb906126f8565b80601f0160208091040260200160405190810160405280929190818152602001828054610ee7906126f8565b8015610f345780601f10610f0957610100808354040283529160200191610f34565b820191906000526020600020905b815481529060010190602001808311610f1757829003601f168201915b5050505050905090565b610f483382611e65565b7f68c1048714fbbd45412218239c63f081f29f4eb6a09205f30f12265c9bac046b338242604051610f7b93929190612346565b60405180910390a150565b600080610f916116bc565b90506000600160008373ffffffffffffffffffffffffffffffffffffffff1673ffffffffffffffffffffffffffffffffffffffff16815260200190815260200160002060008673ffffffffffffffffffffffffffffffffffffffff1673ffffffffffffffffffffffffffffffffffffffff16815260200190815260200160002054905083811015611057576040517f08c379a000000000000000000000000000000000000000000000000000000000815260040161104e90612523565b60405180910390fd5b61106482868684036116c4565b60019250505092915050565b60008061107b6116bc565b9050611088818585611b08565b600191505092915050565b60008061109f836114eb565b91509150811561120f57600660016006805490506110bd919061263c565b815481106110f4577f4e487b7100000000000000000000000000000000000000000000000000000000600052603260045260246000fd5b9060005260206000200160009054906101000a900473ffffffffffffffffffffffffffffffffffffffff1660068281548110611159577f4e487b7100000000000000000000000000000000000000000000000000000000600052603260045260246000fd5b9060005260206000200160006101000a81548173ffffffffffffffffffffffffffffffffffffffff021916908373ffffffffffffffffffffffffffffffffffffffff16021790555060068054806111d9577f4e487b7100000000000000000000000000000000000000000000000000000000600052603160045260246000fd5b6001900381819060005260206000200160006101000a81549073ffffffffffffffffffffffffffffffffffffffff021916905590555b505050565b6000806000905060005b6006805490508110156112f6576112e1600760006006848154811061126c577f4e487b7100000000000000000000000000000000000000000000000000000000600052603260045260246000fd5b9060005260206000200160009054906101000a900473ffffffffffffffffffffffffffffffffffffffff1673ffffffffffffffffffffffffffffffffffffffff1673ffffffffffffffffffffffffffffffffffffffff168152602001908152602001600020548361188f90919063ffffffff16565b915080806112ee9061272a565b91505061121e565b508091505090565b6000600860003373ffffffffffffffffffffffffffffffffffffffff1673ffffffffffffffffffffffffffffffffffffffff1681526020019081526020016000205490506000600860003373ffffffffffffffffffffffffffffffffffffffff1673ffffffffffffffffffffffffffffffffffffffff168152602001908152602001600020819055506113913382611e65565b50565b60006064600760008473ffffffffffffffffffffffffffffffffffffffff1673ffffffffffffffffffffffffffffffffffffffff168152602001908152602001600020546113e2919061260b565b9050919050565b6000600160008473ffffffffffffffffffffffffffffffffffffffff1673ffffffffffffffffffffffffffffffffffffffff16815260200190815260200160002060008373ffffffffffffffffffffffffffffffffffffffff1673ffffffffffffffffffffffffffffffffffffffff16815260200190815260200160002054905092915050565b600061147b826114eb565b509050806114e7576006829080600181540180825580915050600190039060005260206000200160009091909190916101000a81548173ffffffffffffffffffffffffffffffffffffffff021916908373ffffffffffffffffffffffffffffffffffffffff1602179055505b5050565b60008060005b6006805490508110156115b65760068181548110611538577f4e487b7100000000000000000000000000000000000000000000000000000000600052603260045260246000fd5b9060005260206000200160009054906101000a900473ffffffffffffffffffffffffffffffffffffffff1673ffffffffffffffffffffffffffffffffffffffff168473ffffffffffffffffffffffffffffffffffffffff1614156115a35760018192509250506115bf565b80806115ae9061272a565b9150506114f1565b50600080915091505b915091565b6115cc6116bc565b73ffffffffffffffffffffffffffffffffffffffff166115ea610d53565b73ffffffffffffffffffffffffffffffffffffffff1614611640576040517f08c379a0000000000000000000000000000000000000000000000000000000008152600401611637906124a3565b60405180910390fd5b600073ffffffffffffffffffffffffffffffffffffffff168173ffffffffffffffffffffffffffffffffffffffff1614156116b0576040517f08c379a00000000000000000000000000000000000000000000000000000000081526004016116a790612423565b60405180910390fd5b6116b981611d89565b50565b600033905090565b600073ffffffffffffffffffffffffffffffffffffffff168373ffffffffffffffffffffffffffffffffffffffff161415611734576040517f08c379a000000000000000000000000000000000000000000000000000000000815260040161172b90612503565b60405180910390fd5b600073ffffffffffffffffffffffffffffffffffffffff168273ffffffffffffffffffffffffffffffffffffffff1614156117a4576040517f08c379a000000000000000000000000000000000000000000000000000000000815260040161179b90612443565b60405180910390fd5b80600160008573ffffffffffffffffffffffffffffffffffffffff1673ffffffffffffffffffffffffffffffffffffffff16815260200190815260200160002060008473ffffffffffffffffffffffffffffffffffffffff1673ffffffffffffffffffffffffffffffffffffffff168152602001908152602001600020819055508173ffffffffffffffffffffffffffffffffffffffff168373ffffffffffffffffffffffffffffffffffffffff167f8c5be1e5ebec7d5bd14f71427d1e84f3dd0314c0f7b2291e5b200ac8c7c3b925836040516118829190612563565b60405180910390a3505050565b6000818361189d91906125b5565b905092915050565b600073ffffffffffffffffffffffffffffffffffffffff168273ffffffffffffffffffffffffffffffffffffffff161415611915576040517f08c379a000000000000000000000000000000000000000000000000000000000815260040161190c906124c3565b60405180910390fd5b61192182600083611fc5565b60008060008473ffffffffffffffffffffffffffffffffffffffff1673ffffffffffffffffffffffffffffffffffffffff168152602001908152602001600020549050818110156119a7576040517f08c379a000000000000000000000000000000000000000000000000000000000815260040161199e90612403565b60405180910390fd5b8181036000808573ffffffffffffffffffffffffffffffffffffffff1673ffffffffffffffffffffffffffffffffffffffff1681526020019081526020016000208190555081600260008282546119fe919061263c565b92505081905550600073ffffffffffffffffffffffffffffffffffffffff168373ffffffffffffffffffffffffffffffffffffffff167fddf252ad1be2c89b69c2b068fc378daa952ba7f163c4a11628f55a4df523b3ef84604051611a639190612563565b60405180910390a3611a7783600084611fca565b505050565b6000611a8884846113e9565b90507fffffffffffffffffffffffffffffffffffffffffffffffffffffffffffffffff8114611b025781811015611af4576040517f08c379a0000000000000000000000000000000000000000000000000000000008152600401611aeb90612463565b60405180910390fd5b611b0184848484036116c4565b5b50505050565b600073ffffffffffffffffffffffffffffffffffffffff168373ffffffffffffffffffffffffffffffffffffffff161415611b78576040517f08c379a0000000000000000000000000000000000000000000000000000000008152600401611b6f906124e3565b60405180910390fd5b600073ffffffffffffffffffffffffffffffffffffffff168273ffffffffffffffffffffffffffffffffffffffff161415611be8576040517f08c379a0000000000000000000000000000000000000000000000000000000008152600401611bdf906123e3565b60405180910390fd5b611bf3838383611fc5565b60008060008573ffffffffffffffffffffffffffffffffffffffff1673ffffffffffffffffffffffffffffffffffffffff16815260200190815260200160002054905081811015611c79576040517f08c379a0000000000000000000000000000000000000000000000000000000008152600401611c7090612483565b60405180910390fd5b8181036000808673ffffffffffffffffffffffffffffffffffffffff1673ffffffffffffffffffffffffffffffffffffffff16815260200190815260200160002081905550816000808573ffffffffffffffffffffffffffffffffffffffff1673ffffffffffffffffffffffffffffffffffffffff1681526020019081526020016000206000828254611d0c91906125b5565b925050819055508273ffffffffffffffffffffffffffffffffffffffff168473ffffffffffffffffffffffffffffffffffffffff167fddf252ad1be2c89b69c2b068fc378daa952ba7f163c4a11628f55a4df523b3ef84604051611d709190612563565b60405180910390a3611d83848484611fca565b50505050565b6000600560009054906101000a900473ffffffffffffffffffffffffffffffffffffffff16905081600560006101000a81548173ffffffffffffffffffffffffffffffffffffffff021916908373ffffffffffffffffffffffffffffffffffffffff1602179055508173ffffffffffffffffffffffffffffffffffffffff168173ffffffffffffffffffffffffffffffffffffffff167f8be0079c531659141344cd1fd0a4f28419497f9722a3daafe3b4186f6b6457e060405160405180910390a35050565b60008183611e5d919061263c565b905092915050565b600073ffffffffffffffffffffffffffffffffffffffff168273ffffffffffffffffffffffffffffffffffffffff161415611ed5576040517f08c379a0000000000000000000000000000000000000000000000000000000008152600401611ecc90612543565b60405180910390fd5b611ee160008383611fc5565b8060026000828254611ef391906125b5565b92505081905550806000808473ffffffffffffffffffffffffffffffffffffffff1673ffffffffffffffffffffffffffffffffffffffff1681526020019081526020016000206000828254611f4891906125b5565b925050819055508173ffffffffffffffffffffffffffffffffffffffff16600073ffffffffffffffffffffffffffffffffffffffff167fddf252ad1be2c89b69c2b068fc378daa952ba7f163c4a11628f55a4df523b3ef83604051611fad9190612563565b60405180910390a3611fc160008383611fca565b5050565b505050565b505050565b600081359050611fde81612b53565b92915050565b600081359050611ff381612b6a565b92915050565b60006020828403121561200b57600080fd5b600061201984828501611fcf565b91505092915050565b6000806040838503121561203557600080fd5b600061204385828601611fcf565b925050602061205485828601611fcf565b9150509250929050565b60008060006060848603121561207357600080fd5b600061208186828701611fcf565b935050602061209286828701611fcf565b92505060406120a386828701611fe4565b9150509250925092565b600080604083850312156120c057600080fd5b60006120ce85828601611fcf565b92505060206120df85828601611fe4565b9150509250929050565b6000602082840312156120fb57600080fd5b600061210984828501611fe4565b91505092915050565b61211b81612670565b82525050565b61212a81612682565b82525050565b600061213b82612599565b61214581856125a4565b93506121558185602086016126c5565b61215e81612800565b840191505092915050565b60006121766023836125a4565b915061218182612811565b604082019050919050565b60006121996022836125a4565b91506121a482612860565b604082019050919050565b60006121bc6026836125a4565b91506121c7826128af565b604082019050919050565b60006121df6022836125a4565b91506121ea826128fe565b604082019050919050565b6000612202601d836125a4565b915061220d8261294d565b602082019050919050565b60006122256026836125a4565b915061223082612976565b604082019050919050565b60006122486020836125a4565b9150612253826129c5565b602082019050919050565b600061226b6021836125a4565b9150612276826129ee565b604082019050919050565b600061228e6025836125a4565b915061229982612a3d565b604082019050919050565b60006122b16024836125a4565b91506122bc82612a8c565b604082019050919050565b60006122d46025836125a4565b91506122df82612adb565b604082019050919050565b60006122f7601f836125a4565b915061230282612b2a565b602082019050919050565b612316816126ae565b82525050565b612325816126b8565b82525050565b60006020820190506123406000830184612112565b92915050565b600060608201905061235b6000830186612112565b612368602083018561230d565b612375604083018461230d565b949350505050565b60006020820190506123926000830184612121565b92915050565b60006040820190506123ad6000830185612121565b6123ba602083018461230d565b9392505050565b600060208201905081810360008301526123db8184612130565b905092915050565b600060208201905081810360008301526123fc81612169565b9050919050565b6000602082019050818103600083015261241c8161218c565b9050919050565b6000602082019050818103600083015261243c816121af565b9050919050565b6000602082019050818103600083015261245c816121d2565b9050919050565b6000602082019050818103600083015261247c816121f5565b9050919050565b6000602082019050818103600083015261249c81612218565b9050919050565b600060208201905081810360008301526124bc8161223b565b9050919050565b600060208201905081810360008301526124dc8161225e565b9050919050565b600060208201905081810360008301526124fc81612281565b9050919050565b6000602082019050818103600083015261251c816122a4565b9050919050565b6000602082019050818103600083015261253c816122c7565b9050919050565b6000602082019050818103600083015261255c816122ea565b9050919050565b6000602082019050612578600083018461230d565b92915050565b6000602082019050612593600083018461231c565b92915050565b600081519050919050565b600082825260208201905092915050565b60006125c0826126ae565b91506125cb836126ae565b9250827fffffffffffffffffffffffffffffffffffffffffffffffffffffffffffffffff03821115612600576125ff612773565b5b828201905092915050565b6000612616826126ae565b9150612621836126ae565b925082612631576126306127a2565b5b828204905092915050565b6000612647826126ae565b9150612652836126ae565b92508282101561266557612664612773565b5b828203905092915050565b600061267b8261268e565b9050919050565b60008115159050919050565b600073ffffffffffffffffffffffffffffffffffffffff82169050919050565b6000819050919050565b600060ff82169050919050565b60005b838110156126e35780820151818401526020810190506126c8565b838111156126f2576000848401525b50505050565b6000600282049050600182168061271057607f821691505b60208210811415612724576127236127d1565b5b50919050565b6000612735826126ae565b91507fffffffffffffffffffffffffffffffffffffffffffffffffffffffffffffffff82141561276857612767612773565b5b600182019050919050565b7f4e487b7100000000000000000000000000000000000000000000000000000000600052601160045260246000fd5b7f4e487b7100000000000000000000000000000000000000000000000000000000600052601260045260246000fd5b7f4e487b7100000000000000000000000000000000000000000000000000000000600052602260045260246000fd5b6000601f19601f8301169050919050565b7f45524332303a207472616e7366657220746f20746865207a65726f206164647260008201527f6573730000000000000000000000000000000000000000000000000000000000602082015250565b7f45524332303a206275726e20616d6f756e7420657863656564732062616c616e60008201527f6365000000000000000000000000000000000000000000000000000000000000602082015250565b7f4f776e61626c653a206e6577206f776e657220697320746865207a65726f206160008201527f6464726573730000000000000000000000000000000000000000000000000000602082015250565b7f45524332303a20617070726f766520746f20746865207a65726f20616464726560008201527f7373000000000000000000000000000000000000000000000000000000000000602082015250565b7f45524332303a20696e73756666696369656e7420616c6c6f77616e6365000000600082015250565b7f45524332303a207472616e7366657220616d6f756e742065786365656473206260008201527f616c616e63650000000000000000000000000000000000000000000000000000602082015250565b7f4f776e61626c653a2063616c6c6572206973206e6f7420746865206f776e6572600082015250565b7f45524332303a206275726e2066726f6d20746865207a65726f2061646472657360008201527f7300000000000000000000000000000000000000000000000000000000000000602082015250565b7f45524332303a207472616e736665722066726f6d20746865207a65726f20616460008201527f6472657373000000000000000000000000000000000000000000000000000000602082015250565b7f45524332303a20617070726f76652066726f6d20746865207a65726f2061646460008201527f7265737300000000000000000000000000000000000000000000000000000000602082015250565b7f45524332303a2064656372656173656420616c6c6f77616e63652062656c6f7760008201527f207a65726f000000000000000000000000000000000000000000000000000000602082015250565b7f45524332303a206d696e7420746f20746865207a65726f206164647265737300600082015250565b612b5c81612670565b8114612b6757600080fd5b50565b612b73816126ae565b8114612b7e57600080fd5b5056fea26469706673582212205b84d2774caab257a23ad2e9d7d0642f63edbcb2674d5600b410e986255fca0464736f6c63430008010033",
  "linkReferences": {},
  "deployedLinkReferences": {}
}